:04000000FEEF7FF0A0
:102E000000000401030EC66E010E0401006F0301F1
:102E1000F46BF56BF66BF86BEC6B000EEF6F000E5E
:102E2000EE6FF06BE76BF96B940EF36F04010183A7
:102E3000800EC86E106B040EC06E170E0201726F0A
:102E4000200E136FECEC17F0D68E26EC18F0010E66
:102E50000A6E89EC17F0096E09500A18D8A433EFEE
:102E600017F035EF17F037EF17F029EF17F009C516
:102E70000AF50A50D8A43FEF17F041EF17F029EFF9
:102E800017F0FFEC17F0540E0EEC18F0580E0EEC85
:102E900018F0440E0EEC18F0410E0EEC18F00D0E6A
:102EA0000EEC18F00A0E0EEC18F0200E0EEC18F0D6
:102EB000200E0EEC18F0200E0EEC18F0000E076E2F
:102EC000000E066E0550C8EC17F0016E01500EECB6
:102ED00018F0000E076E010E066E0450C8EC17F0D5
:102EE000016E01500EEC18F0000E076E000E066E1B
:102EF0000450C8EC17F0016E01500EEC18F00A0EE9
:102F00000EEC18F0000E0EEC18F029EF17F0FEEFA3
:102F10007FF0026A0301600E0301236F226B000E33
:102F2000CEB2010E096E248FA3EF17F0000ECEB2C1
:102F3000010E036E0350D8A4A0EF17F0A2EF17F014
:102F4000A3EF17F0022A5F0E2265A9EF17F0ABEF8F
:102F500017F096EF17F00A0E0264B1EF17F0B3EF17
:102F600017F0B8EF17F0096A23EC18F0BCEF17F070
:102F7000010E096E26EC18F003010301249FCEA276
:102F8000C4EF17F0C6EF17F0BFEF17F009501200AB
:102F9000086E06500710D8B4D0EF17F0D2EF17F034
:102FA000D8EF17F008380F0B0F0B036EDBEF17F09D
:102FB00008500F0B036E0A0E0360E1EF17F0E3EF0A
:102FC00017F0E7EF17F0300E0326EAEF17F0035083
:102FD000370F036E035012000201300E0201AB6F77
:102FE000AC6B800EAD6FB36BB16BB06BAF6BD10ED2
:102FF000AE6FB26BAC8F0401B290A28012000301DD
:103000000301F381F3B107EF18F009EF18F002EFB5
:1030100018F0EBC305F5EAC304F51200066E0201D1
:103020000201B0B916EF18F018EF18F010EF18F011
:1030300006C5A3F21200056A046A036A026A016AFD
:10304000000101EF17F00401BE8412000401BE94D8
:0230500012006C
:04FFFC001BEF18F0EF
:020000040030CA
:100000008CFDFFFF9FFFDFFFFFFFFFFFFFFFFFFFF5
:10001000FFFFFFFFFFFFFFFFFFFFFFFFFFFFFFFFF0
:03002000FFFFFFE0
:00000001FF
