:04000000FEEF7FF0A0
:102E00000000030EC66E010E0401006F0301F46B97
:102E1000F56BF66BF86BEC6B000EEF6F000EEE6F60
:102E2000F06BE76BF96B940EF36F800EC86E0401C4
:102E3000106B040EC06E170E0201726F200E136F1E
:102E4000E8EC17F0D68E1DEC18F0010E0A6E87EC38
:102E500017F0096E09500A18D8A431EF17F033EFB4
:102E600017F035EF17F027EF17F009C50AF50A50EC
:102E7000D8A43DEF17F03FEF17F027EF17F0F9EC6C
:102E800017F0540E07EC18F0580E07EC18F0440E2B
:102E900007EC18F0410E07EC18F00D0E07EC18F0D7
:102EA0000A0E07EC18F0200E07EC18F0200E07ECC5
:102EB00018F0200E07EC18F0000E076E000E066EDC
:102EC0000550C4EC17F0016E015007EC18F0000E2D
:102ED000076E010E066E0450C4EC17F0016E01502F
:102EE00007EC18F0000E076E000E066E0450C4ECDE
:102EF00017F0016E015007EC18F00A0E07EC18F0FD
:102F0000000E07EC18F027EF17F0FEEF7FF0026AD3
:102F1000600E0301236F226B000ECEB2010E096E0C
:102F2000248FA0EF17F0000ECEB2010E036E0350F7
:102F3000D8A49DEF17F09FEF17F0A0EF17F0022A2B
:102F40005F0E2265A6EF17F0A8EF17F093EF17F0CA
:102F50000A0E0264AEEF17F0B0EF17F0B5EF17F0FE
:102F6000096A1BEC18F0B9EF17F0010E096E1DECA1
:102F700018F00301249FCEA2C0EF17F0C2EF17F0A4
:102F8000BBEF17F009501200086E06500710D8B4B6
:102F9000CCEF17F0CEEF17F0D4EF17F008380F0B87
:102FA0000F0B036ED7EF17F008500F0B036E0A0ECE
:102FB0000360DDEF17F0DFEF17F0E3EF17F0300EEF
:102FC0000326E6EF17F00350370F036E035012008D
:102FD000300E0201AB6FAC6B800EAD6FB36BB16B9B
:102FE000B06BAF6BD10EAE6FB26BAC8FB290A280F4
:102FF00012000301F381F3B100EF18F002EF18F0B3
:10300000FBEF17F0EBC305F5EAC304F51200066EFB
:103010000201B0B90EEF18F010EF18F008EF18F039
:1030200006C5A3F21200056A046A036A026A016A0D
:0E303000000101EF17F0BE841200BE941200E2
:04FFFC0013EF18F0F7
:020000040030CA
:100000008CFDFFFF9FFFDFFFFFFFFFFFFFFFFFFFF5
:10001000FFFFFFFFFFFFFFFFFFFFFFFFFFFFFFFFF0
:03002000FFFFFFE0
:00000001FF
