:04000000FEEF7FF0A0
:102E000000000401030EC66E010E0401006F0301F1
:102E1000F46BF56BF66BF86BEC6B000EEF6F000E5E
:102E2000EE6FF06BE76BF96B940EF36F04010183A7
:102E3000800EC86E106B040EC06E170E0201726F0A
:102E4000200E136F0AEC18F0D68E35EC18F0010E38
:102E50000A6E89EC17F0096E09500A18D8A433EFEE
:102E600017F035EF17F037EF17F029EF17F009C516
:102E70000AF50A50D8A43FEF17F041EF17F029EFF9
:102E800017F0EEEC17F0540E1DEC18F0580E1DEC78
:102E900018F0440E1DEC18F0410E1DEC18F00D0E4C
:102EA0001DEC18F00A0E1DEC18F0200E1DEC18F0A9
:102EB000200E1DEC18F0200E1DEC18F0000E076E11
:102EC000000E066E0550CAEC17F0016E01501DECA5
:102ED00018F0000E076E010E066E0450CAEC17F0D3
:102EE000016E01501DEC18F0000E076E000E066E0C
:102EF0000450CAEC17F0016E01501DEC18F00A0ED8
:102F00001DEC18F0000E1DEC18F029EF17F0FEEF85
:102F10007FF0026A200E0301246F020E266F256BDC
:102F2000600E236F000ECEB2010E096E226B248F4D
:102F3000A7EF17F0000ECEB2010E036E0350D8A417
:102F4000A4EF17F0A6EF17F0A7EF17F0022A5F0E15
:102F50002265ADEF17F0AFEF17F09AEF17F0249F4F
:102F60000A0E0264B6EF17F0B8EF17F0BDEF17F0D6
:102F7000096A32EC18F0C1EF17F0010E096E35EC5A
:102F800018F0CEA2C6EF17F0C8EF17F0C1EF17F098
:102F900009501200086E06500710D8B4D2EF17F08F
:102FA000D4EF17F0DAEF17F008380F0B0F0B036EA2
:102FB000DDEF17F008500F0B036E0A0E0360E3EF0E
:102FC00017F0E5EF17F0E9EF17F0300E0326ECEFFE
:102FD00017F00350370F036E035012000301EB6B21
:102FE000EA6BF391F38F150E066EC60EE82EFED730
:102FF000062EFCD700D00301F381F3B102EF18F0E5
:1030000004EF18F0FDEF17F0EBC305F5EAC304F584
:10301000F39F12000201300E0201AB6FAC6B800E09
:10302000AD6FB36BB16BB06BAF6BD10EAE6FB26BFC
:10303000AC8F0401B290A2801200066E0201020160
:10304000B0B925EF18F027EF18F01FEF18F006C5FC
:10305000A3F21200056A046A036A026A016A0001A7
:1030600001EF17F00401BE8412000401BE941200A7
:04FFFC002AEF18F0E0
:020000040030CA
:100000008CFDFFFF9FFFDFFFFFFFFFFFFFFFFFFFF5
:10001000FFFFFFFFFFFFFFFFFFFFFFFFFFFFFFFFF0
:03002000FFFFFFE0
:00000001FF
